{
  "contractName": "Calificacion",
  "abi": [
    {
      "inputs": [],
      "stateMutability": "nonpayable",
      "type": "constructor"
    },
    {
      "anonymous": false,
      "inputs": [
        {
          "indexed": false,
          "internalType": "bytes32",
          "name": "",
          "type": "bytes32"
        },
        {
          "indexed": false,
          "internalType": "uint8",
          "name": "",
          "type": "uint8"
        }
      ],
      "name": "evento_alumno_evaluado",
      "type": "event"
    },
    {
      "anonymous": false,
      "inputs": [
        {
          "indexed": false,
          "internalType": "string",
          "name": "",
          "type": "string"
        }
      ],
      "name": "evento_revision",
      "type": "event"
    },
    {
      "inputs": [],
      "name": "profesor",
      "outputs": [
        {
          "internalType": "address",
          "name": "",
          "type": "address"
        }
      ],
      "stateMutability": "view",
      "type": "function",
      "constant": true
    },
    {
      "inputs": [
        {
          "internalType": "string",
          "name": "_matriculaAlumno",
          "type": "string"
        },
        {
          "internalType": "uint8",
          "name": "_calificacion",
          "type": "uint8"
        }
      ],
      "name": "evaluar",
      "outputs": [],
      "stateMutability": "nonpayable",
      "type": "function"
    },
    {
      "inputs": [
        {
          "internalType": "string",
          "name": "_matriculaAlumno",
          "type": "string"
        }
      ],
      "name": "ver_notas",
      "outputs": [
        {
          "internalType": "uint8",
          "name": "",
          "type": "uint8"
        }
      ],
      "stateMutability": "view",
      "type": "function",
      "constant": true
    },
    {
      "inputs": [
        {
          "internalType": "string",
          "name": "_matriculaAlumno",
          "type": "string"
        }
      ],
      "name": "revision",
      "outputs": [],
      "stateMutability": "nonpayable",
      "type": "function"
    },
    {
      "inputs": [],
      "name": "ver_revision",
      "outputs": [
        {
          "internalType": "string[]",
          "name": "",
          "type": "string[]"
        }
      ],
      "stateMutability": "view",
      "type": "function",
      "constant": true
    }
  ],
  "bytecode": "0x608060405234801561001057600080fd5b50336000806101000a81548173ffffffffffffffffffffffffffffffffffffffff021916908373ffffffffffffffffffffffffffffffffffffffff160217905550610dde806100606000396000f3fe608060405234801561001057600080fd5b50600436106100575760003560e01c806340a01ba01461005c5780636265794914610078578063be7e4673146100a8578063ca981d91146100c6578063df096576146100e2575b600080fd5b61007660048036038101906100719190610659565b610100565b005b610092600480360381019061008d91906106b5565b610225565b60405161009f919061070d565b60405180910390f35b6100b0610280565b6040516100bd9190610869565b60405180910390f35b6100e060048036038101906100db91906106b5565b6103e9565b005b6100ea6104a2565b6040516100f791906108cc565b60405180910390f35b3360008054906101000a900473ffffffffffffffffffffffffffffffffffffffff1673ffffffffffffffffffffffffffffffffffffffff168173ffffffffffffffffffffffffffffffffffffffff161461018f576040517f08c379a000000000000000000000000000000000000000000000000000000000815260040161018690610944565b60405180910390fd5b6000836040516020016101a291906109a0565b604051602081830303815290604052805190602001209050826001600083815260200190815260200160002060006101000a81548160ff021916908360ff1602179055507f900867e4c2b13e51f637cd48cdfe21c724bdaed0c53bc4fcb7cb903d63432ce481846040516102179291906109d0565b60405180910390a150505050565b6000808260405160200161023991906109a0565b60405160208183030381529060405280519060200120905060006001600083815260200190815260200160002060009054906101000a900460ff1690508092505050919050565b60603360008054906101000a900473ffffffffffffffffffffffffffffffffffffffff1673ffffffffffffffffffffffffffffffffffffffff168173ffffffffffffffffffffffffffffffffffffffff1614610311576040517f08c379a000000000000000000000000000000000000000000000000000000000815260040161030890610944565b60405180910390fd5b6002805480602002602001604051908101604052809291908181526020016000905b828210156103df57838290600052602060002001805461035290610a28565b80601f016020809104026020016040519081016040528092919081815260200182805461037e90610a28565b80156103cb5780601f106103a0576101008083540402835291602001916103cb565b820191906000526020600020905b8154815290600101906020018083116103ae57829003601f168201915b505050505081526020019060010190610333565b5050505091505090565b60008190506000815103610432576040517f08c379a000000000000000000000000000000000000000000000000000000000815260040161042990610aa5565b60405180910390fd5b6002829080600181540180825580915050600190039060005260206000200160009091909190915090816104669190610c7b565b507fafd73f39162aa4c0421f362f3a3d26f44b23c73253256cfc1c68794b0973e0a0826040516104969190610d86565b60405180910390a15050565b60008054906101000a900473ffffffffffffffffffffffffffffffffffffffff1681565b6000604051905090565b600080fd5b600080fd5b600080fd5b600080fd5b6000601f19601f8301169050919050565b7f4e487b7100000000000000000000000000000000000000000000000000000000600052604160045260246000fd5b61052d826104e4565b810181811067ffffffffffffffff8211171561054c5761054b6104f5565b5b80604052505050565b600061055f6104c6565b905061056b8282610524565b919050565b600067ffffffffffffffff82111561058b5761058a6104f5565b5b610594826104e4565b9050602081019050919050565b82818337600083830152505050565b60006105c36105be84610570565b610555565b9050828152602081018484840111156105df576105de6104df565b5b6105ea8482856105a1565b509392505050565b600082601f830112610607576106066104da565b5b81356106178482602086016105b0565b91505092915050565b600060ff82169050919050565b61063681610620565b811461064157600080fd5b50565b6000813590506106538161062d565b92915050565b600080604083850312156106705761066f6104d0565b5b600083013567ffffffffffffffff81111561068e5761068d6104d5565b5b61069a858286016105f2565b92505060206106ab85828601610644565b9150509250929050565b6000602082840312156106cb576106ca6104d0565b5b600082013567ffffffffffffffff8111156106e9576106e86104d5565b5b6106f5848285016105f2565b91505092915050565b61070781610620565b82525050565b600060208201905061072260008301846106fe565b92915050565b600081519050919050565b600082825260208201905092915050565b6000819050602082019050919050565b600081519050919050565b600082825260208201905092915050565b60005b8381101561078e578082015181840152602081019050610773565b60008484015250505050565b60006107a582610754565b6107af818561075f565b93506107bf818560208601610770565b6107c8816104e4565b840191505092915050565b60006107df838361079a565b905092915050565b6000602082019050919050565b60006107ff82610728565b6108098185610733565b93508360208202850161081b85610744565b8060005b85811015610857578484038952815161083885826107d3565b9450610843836107e7565b925060208a0199505060018101905061081f565b50829750879550505050505092915050565b6000602082019050818103600083015261088381846107f4565b905092915050565b600073ffffffffffffffffffffffffffffffffffffffff82169050919050565b60006108b68261088b565b9050919050565b6108c6816108ab565b82525050565b60006020820190506108e160008301846108bd565b92915050565b600082825260208201905092915050565b7f736f6c6f20656c20706f726665736f7220707565646520616363656465720000600082015250565b600061092e601e836108e7565b9150610939826108f8565b602082019050919050565b6000602082019050818103600083015261095d81610921565b9050919050565b600081905092915050565b600061097a82610754565b6109848185610964565b9350610994818560208601610770565b80840191505092915050565b60006109ac828461096f565b915081905092915050565b6000819050919050565b6109ca816109b7565b82525050565b60006040820190506109e560008301856109c1565b6109f260208301846106fe565b9392505050565b7f4e487b7100000000000000000000000000000000000000000000000000000000600052602260045260246000fd5b60006002820490506001821680610a4057607f821691505b602082108103610a5357610a526109f9565b5b50919050565b7f6572726f723a206e6f20686179206461746f7320696e6772657361646f730000600082015250565b6000610a8f601e836108e7565b9150610a9a82610a59565b602082019050919050565b60006020820190508181036000830152610abe81610a82565b9050919050565b60008190508160005260206000209050919050565b60006020601f8301049050919050565b600082821b905092915050565b600060088302610b277fffffffffffffffffffffffffffffffffffffffffffffffffffffffffffffffff82610aea565b610b318683610aea565b95508019841693508086168417925050509392505050565b6000819050919050565b6000819050919050565b6000610b78610b73610b6e84610b49565b610b53565b610b49565b9050919050565b6000819050919050565b610b9283610b5d565b610ba6610b9e82610b7f565b848454610af7565b825550505050565b600090565b610bbb610bae565b610bc6818484610b89565b505050565b5b81811015610bea57610bdf600082610bb3565b600181019050610bcc565b5050565b601f821115610c2f57610c0081610ac5565b610c0984610ada565b81016020851015610c18578190505b610c2c610c2485610ada565b830182610bcb565b50505b505050565b600082821c905092915050565b6000610c5260001984600802610c34565b1980831691505092915050565b6000610c6b8383610c41565b9150826002028217905092915050565b610c8482610754565b67ffffffffffffffff811115610c9d57610c9c6104f5565b5b610ca78254610a28565b610cb2828285610bee565b600060209050601f831160018114610ce55760008415610cd3578287015190505b610cdd8582610c5f565b865550610d45565b601f198416610cf386610ac5565b60005b82811015610d1b57848901518255600182019150602085019450602081019050610cf6565b86831015610d385784890151610d34601f891682610c41565b8355505b6001600288020188555050505b505050505050565b6000610d5882610754565b610d6281856108e7565b9350610d72818560208601610770565b610d7b816104e4565b840191505092915050565b60006020820190508181036000830152610da08184610d4d565b90509291505056fea2646970667358221220d10497ec6fa2ef5de5b35a44c7738b200881a3649ea84461478285d1008056f064736f6c63430008130033",
  "immutableReferences": {},
  "source": "// SPDX-License-Identifier: MIT\r\npragma solidity ^0.8.0;\r\npragma experimental ABIEncoderV2;\r\n\r\n/*\r\nLos datos de las notas se almacenan de la siguiente manera\r\n  -------------------------\r\n |Alumno|Matricula| Calif. |\r\n  -------------------------\r\n |Jose  |202058953|   07   |\r\n |Luisa |201985244|   10   |\r\n |Mario |201752526|   08   |\r\n  -------------------------\r\n */\r\n\r\ncontract Calificacion \r\n{\r\n    //direccion del profesor \r\n    address public profesor;\r\n\r\n    //especificamos el propietario del contrato\r\n    //en este caso el profesor\r\n    constructor () \r\n    {\r\n        profesor = msg.sender;\r\n\r\n    }\r\n    \r\n    /* mapping para relacionar hash de la identidad del\r\n    alumno con la calificacion del examen */\r\n    mapping(bytes32 => uint8) Calificaciones;\r\n\r\n    //array de los alumnos que pidan reviciones de exmamen\r\n    string[] revisiones;\r\n\r\n    //Eventos//////////////////////////////\r\n\r\n    event evento_alumno_evaluado(bytes32,uint8);\r\n    event evento_revision(string);\r\n\r\n    //funcion para registrar evaluacion de maestro a alumno\r\n    function evaluar(string memory _matriculaAlumno, uint8 _calificacion) public SoloProfesor(msg.sender)\r\n    {\r\n        //Creamos hash de identificacion del alumno\r\n        bytes32 hashIdAlumno = keccak256(abi.encodePacked(_matriculaAlumno));\r\n        //relacion entre hash de identificacion y la nota\r\n        Calificaciones[hashIdAlumno] = _calificacion;\r\n        //emitimos evento \r\n        emit evento_alumno_evaluado(hashIdAlumno, _calificacion);\r\n    }\r\n\r\n    //control de las funciones ejecutables por el profesor\r\n    modifier SoloProfesor(address _direccionAcceso)\r\n    {\r\n        //Requiere que la direccion  introducida por \r\n        //el parametro sea igual al creador del contrato\r\n\r\n        require(_direccionAcceso == profesor, \"solo el porfesor puede acceder\");\r\n        _;\r\n    }\r\n\r\n    //Funcion para ver notas de alumno\r\n    function ver_notas(string memory _matriculaAlumno) public view returns(uint8)\r\n    {\r\n        bytes32 hashAlumno = keccak256(abi.encodePacked(_matriculaAlumno)); \r\n        //calificacion asociada al hash del alumno\r\n        uint8 calificacionAlumno = Calificaciones[hashAlumno];\r\n        //devolvemos la calificacion\r\n        return(calificacionAlumno);\r\n    }\r\n\r\n    //Funcion para pedir una revision de calificacion\r\n    function revision(string memory _matriculaAlumno) public \r\n    {\r\n\r\n        bytes memory tempEmptyStringTest = bytes(_matriculaAlumno);\r\n        require(tempEmptyStringTest.length != 0, \"error: no hay datos ingresados\");\r\n        //Almacenamiento de la matricula del alumno en un array\r\n        revisiones.push(_matriculaAlumno);\r\n        //Emision del evento \r\n        emit evento_revision(_matriculaAlumno);\r\n    }\r\n\r\n    //Funcion para ver los alumnos que han solicitado revision\r\n    function ver_revision() public view SoloProfesor(msg.sender) returns(string [] memory)\r\n    {   \r\n        //devolver matricula de alumnos que han solicitado revision\r\n        return(revisiones);\r\n    }\r\n}",
  "sourcePath": "C:\\Users\\kevin\\Github\\curso_blockchain_y_web3\\Curso 2\\08_truffle con detalle\\notas\\contracts\\Calificacion.sol",
  "compiler": {
    "name": "solc",
    "version": "0.8.19+commit.7dd6d404.Emscripten.clang"
  },
  "schemaVersion": "3.4.14",
  "updatedAt": "2023-05-31T22:43:13.160Z",
  "networkType": "ethereum",
  "devdoc": {
    "kind": "dev",
    "methods": {},
    "version": 1
  },
  "userdoc": {
    "kind": "user",
    "methods": {},
    "version": 1
  }
}