{
  "contractName": "OracleNasa",
  "abi": [
    {
      "anonymous": false,
      "inputs": [
        {
          "indexed": true,
          "internalType": "address",
          "name": "previousOwner",
          "type": "address"
        },
        {
          "indexed": true,
          "internalType": "address",
          "name": "newOwner",
          "type": "address"
        }
      ],
      "name": "OwnershipTransferred",
      "type": "event"
    },
    {
      "anonymous": false,
      "inputs": [],
      "name": "__callbackNewData",
      "type": "event"
    },
    {
      "inputs": [],
      "name": "numAsteroides",
      "outputs": [
        {
          "internalType": "uint256",
          "name": "",
          "type": "uint256"
        }
      ],
      "stateMutability": "view",
      "type": "function",
      "constant": true
    },
    {
      "inputs": [],
      "name": "owner",
      "outputs": [
        {
          "internalType": "address",
          "name": "",
          "type": "address"
        }
      ],
      "stateMutability": "view",
      "type": "function",
      "constant": true
    },
    {
      "inputs": [],
      "name": "renounceOwnership",
      "outputs": [],
      "stateMutability": "nonpayable",
      "type": "function"
    },
    {
      "inputs": [
        {
          "internalType": "address",
          "name": "newOwner",
          "type": "address"
        }
      ],
      "name": "transferOwnership",
      "outputs": [],
      "stateMutability": "nonpayable",
      "type": "function"
    },
    {
      "inputs": [],
      "name": "update",
      "outputs": [],
      "stateMutability": "nonpayable",
      "type": "function"
    },
    {
      "inputs": [
        {
          "internalType": "uint256",
          "name": "_numAsteroides",
          "type": "uint256"
        }
      ],
      "name": "setNumAsteroides",
      "outputs": [],
      "stateMutability": "nonpayable",
      "type": "function"
    }
  ],
  "bytecode": "0x608060405234801561000f575f80fd5b5061002c61002161003160201b60201c565b61003860201b60201c565b6100f9565b5f33905090565b5f805f9054906101000a900473ffffffffffffffffffffffffffffffffffffffff169050815f806101000a81548173ffffffffffffffffffffffffffffffffffffffff021916908373ffffffffffffffffffffffffffffffffffffffff1602179055508173ffffffffffffffffffffffffffffffffffffffff168173ffffffffffffffffffffffffffffffffffffffff167f8be0079c531659141344cd1fd0a4f28419497f9722a3daafe3b4186f6b6457e060405160405180910390a35050565b6105af806101065f395ff3fe608060405234801561000f575f80fd5b5060043610610060575f3560e01c8063715018a6146100645780638da5cb5b1461006e578063a2e620451461008c578063b934fa3314610096578063df4ecad0146100b4578063f2fde38b146100d0575b5f80fd5b61006c6100ec565b005b6100766100ff565b604051610083919061037b565b60405180910390f35b610094610126565b005b61009e61015c565b6040516100ab91906103ac565b60405180910390f35b6100ce60048036038101906100c991906103f3565b610162565b005b6100ea60048036038101906100e59190610448565b610174565b005b6100f46101f6565b6100fd5f610274565b565b5f805f9054906101000a900473ffffffffffffffffffffffffffffffffffffffff16905090565b61012e6101f6565b7f2bfb84d8e96bf2a06daf6ebca52197c6c24fcd7c9c9c1f434c3bc9e59a92f1c160405160405180910390a1565b60015481565b61016a6101f6565b8060018190555050565b61017c6101f6565b5f73ffffffffffffffffffffffffffffffffffffffff168173ffffffffffffffffffffffffffffffffffffffff16036101ea576040517f08c379a00000000000000000000000000000000000000000000000000000000081526004016101e1906104f3565b60405180910390fd5b6101f381610274565b50565b6101fe610335565b73ffffffffffffffffffffffffffffffffffffffff1661021c6100ff565b73ffffffffffffffffffffffffffffffffffffffff1614610272576040517f08c379a00000000000000000000000000000000000000000000000000000000081526004016102699061055b565b60405180910390fd5b565b5f805f9054906101000a900473ffffffffffffffffffffffffffffffffffffffff169050815f806101000a81548173ffffffffffffffffffffffffffffffffffffffff021916908373ffffffffffffffffffffffffffffffffffffffff1602179055508173ffffffffffffffffffffffffffffffffffffffff168173ffffffffffffffffffffffffffffffffffffffff167f8be0079c531659141344cd1fd0a4f28419497f9722a3daafe3b4186f6b6457e060405160405180910390a35050565b5f33905090565b5f73ffffffffffffffffffffffffffffffffffffffff82169050919050565b5f6103658261033c565b9050919050565b6103758161035b565b82525050565b5f60208201905061038e5f83018461036c565b92915050565b5f819050919050565b6103a681610394565b82525050565b5f6020820190506103bf5f83018461039d565b92915050565b5f80fd5b6103d281610394565b81146103dc575f80fd5b50565b5f813590506103ed816103c9565b92915050565b5f60208284031215610408576104076103c5565b5b5f610415848285016103df565b91505092915050565b6104278161035b565b8114610431575f80fd5b50565b5f813590506104428161041e565b92915050565b5f6020828403121561045d5761045c6103c5565b5b5f61046a84828501610434565b91505092915050565b5f82825260208201905092915050565b7f4f776e61626c653a206e6577206f776e657220697320746865207a65726f20615f8201527f6464726573730000000000000000000000000000000000000000000000000000602082015250565b5f6104dd602683610473565b91506104e882610483565b604082019050919050565b5f6020820190508181035f83015261050a816104d1565b9050919050565b7f4f776e61626c653a2063616c6c6572206973206e6f7420746865206f776e65725f82015250565b5f610545602083610473565b915061055082610511565b602082019050919050565b5f6020820190508181035f83015261057281610539565b905091905056fea26469706673582212203eb882b3fbf83d7c8baf70fa3d33ce54ce52c4d4bd44a183416fe2c10935b97064736f6c63430008140033",
  "immutableReferences": {},
  "source": "// SPDX-License-Identifier: MIT\npragma solidity ^0.8.0;\nimport \"@openzeppelin/contracts/access/Ownable.sol\";\n\ncontract OracleNasa is Ownable {\n    \n    // direcccion de la api https://api.nasa.gov/neo/rest/v1/feed?start_date=START_DATE&end_date=END_DATE&api_key=API_KEY\n\n    /// @dev Evento que se dispara cuando hay nuevos datos\n    event __callbackNewData();\n\n    /// @dev Permite ver el num de asteroides\n    uint public numAsteroides;\n\n    /// @dev Recibe datos del oraculo\n    function update() public onlyOwner{\n        emit __callbackNewData();\n    }\n\n    /// @dev  Funcion para configuracion manual del numero de asteroides\n    function setNumAsteroides(uint _numAsteroides) public onlyOwner{\n        numAsteroides = _numAsteroides;\n    }\n\n    \n\n}",
  "sourcePath": "/home/jistro/Github/curso_blockchain_y_web3/Curso 2/11_Creando nuestro oraculo para Smart contracts/oracle/contracts/oracleNasa.sol",
  "compiler": {
    "name": "solc",
    "version": "0.8.20+commit.a1b79de6.Emscripten.clang"
  },
  "schemaVersion": "3.4.14",
  "updatedAt": "2023-06-07T22:55:42.611Z",
  "networkType": "ethereum",
  "devdoc": {
    "events": {
      "__callbackNewData()": {
        "details": "Evento que se dispara cuando hay nuevos datos"
      }
    },
    "kind": "dev",
    "methods": {
      "owner()": {
        "details": "Returns the address of the current owner."
      },
      "renounceOwnership()": {
        "details": "Leaves the contract without owner. It will not be possible to call `onlyOwner` functions. Can only be called by the current owner. NOTE: Renouncing ownership will leave the contract without an owner, thereby disabling any functionality that is only available to the owner."
      },
      "setNumAsteroides(uint256)": {
        "details": "Funcion para configuracion manual del numero de asteroides"
      },
      "transferOwnership(address)": {
        "details": "Transfers ownership of the contract to a new account (`newOwner`). Can only be called by the current owner."
      },
      "update()": {
        "details": "Recibe datos del oraculo"
      }
    },
    "stateVariables": {
      "numAsteroides": {
        "details": "Permite ver el num de asteroides"
      }
    },
    "version": 1
  },
  "userdoc": {
    "kind": "user",
    "methods": {},
    "version": 1
  }
}